:100000000C9446000C945D000C945D000C945D0013
:100010000C945D000C945D000C945D000C945D00EC
:100020000C945D000C945D000C945D000C945D00DC
:100030000C945D000C945D000C945D000C945D00CC
:100040000C945D000C945D000C945D000C945D00BC
:100050000C945D000C945D000C945D000C945D00AC
:100060000C945D000C945D000C945D000C945D009C
:100070000C945D000C945D000C945D000C945D008C
:100080000C945D000C945D000C945D0011241FBE67
:10009000CFEFD0E4DEBFCDBF11E0A0E0B1E0E6E0FD
:1000A000F2E000E00BBF02C007900D92AE30B10746
:1000B000D9F70E9488000C9401010C940000CF93A2
:1000C000DF9300D01F92CDB7DEB789837B836A832D
:1000D00089818A3031F48A819B81BC018DE00E9444
:1000E0005F0080EC90E0FC018081882F90E08072BE
:1000F00099270097B1F386EC90E02981FC012083D9
:1001000080E090E00F900F900F90DF91CF910895D5
:10011000CF93DF9300D01F92CDB7DEB781E290E09E
:10012000FC01108282E290E02FEFFC01208387E245
:1001300090E02FEFFC01208388E290E0FC01108228
:100140001A8219821B8280E290E0FC0180818A83FE
:1001500019821B828A8180778B838B81882F90E024
:1001600080719927009789F08B81882F90E08072A9
:100170009927009751F08B81882F90E08074992700
:10018000009719F48981806889838A818F708A83B6
:100190008A818D3020F089818F63898322C08A8192
:1001A0008A3020F089818E6389831BC08A818730E1
:1001B00020F089818C63898314C08A81853020F086
:1001C0008981886389830DC08A81833020F0898189
:1001D0008063898306C08A81882319F089818062BF
:1001E00089838981882F90E08F709927009719F46F
:1001F00089818064898388E290E02981FC012083E1
:06020000A2CFF894FFCF2D
:0E02060000000002000000005F000000000089
:00000001FF
